{
  "_format": "hh-sol-artifact-1",
  "contractName": "BattleGame",
  "sourceName": "contracts/BattleGame.sol",
  "abi": [
    {
      "inputs": [
        {
          "internalType": "string[]",
          "name": "characterNames",
          "type": "string[]"
        },
        {
          "internalType": "string[]",
          "name": "characterimageURIs",
          "type": "string[]"
        },
        {
          "internalType": "uint256[]",
          "name": "characterUglinessLevels",
          "type": "uint256[]"
        },
        {
          "internalType": "uint256[]",
          "name": "characterHp",
          "type": "uint256[]"
        },
        {
          "internalType": "uint256[]",
          "name": "characterAttackDmg",
          "type": "uint256[]"
        },
        {
          "internalType": "string",
          "name": "bossName",
          "type": "string"
        },
        {
          "internalType": "string",
          "name": "bossImageURI",
          "type": "string"
        },
        {
          "internalType": "uint256",
          "name": "bossHp",
          "type": "uint256"
        },
        {
          "internalType": "uint256",
          "name": "bossAttackDamage",
          "type": "uint256"
        }
      ],
      "stateMutability": "nonpayable",
      "type": "constructor"
    },
    {
      "anonymous": false,
      "inputs": [
        {
          "indexed": true,
          "internalType": "address",
          "name": "owner",
          "type": "address"
        },
        {
          "indexed": true,
          "internalType": "address",
          "name": "approved",
          "type": "address"
        },
        {
          "indexed": true,
          "internalType": "uint256",
          "name": "tokenId",
          "type": "uint256"
        }
      ],
      "name": "Approval",
      "type": "event"
    },
    {
      "anonymous": false,
      "inputs": [
        {
          "indexed": true,
          "internalType": "address",
          "name": "owner",
          "type": "address"
        },
        {
          "indexed": true,
          "internalType": "address",
          "name": "operator",
          "type": "address"
        },
        {
          "indexed": false,
          "internalType": "bool",
          "name": "approved",
          "type": "bool"
        }
      ],
      "name": "ApprovalForAll",
      "type": "event"
    },
    {
      "anonymous": false,
      "inputs": [
        {
          "indexed": false,
          "internalType": "uint256",
          "name": "newBossHp",
          "type": "uint256"
        },
        {
          "indexed": false,
          "internalType": "uint256",
          "name": "newPlayerHp",
          "type": "uint256"
        }
      ],
      "name": "AttackComplete",
      "type": "event"
    },
    {
      "anonymous": false,
      "inputs": [
        {
          "indexed": false,
          "internalType": "address",
          "name": "sender",
          "type": "address"
        },
        {
          "indexed": false,
          "internalType": "uint256",
          "name": "tokenId",
          "type": "uint256"
        },
        {
          "indexed": false,
          "internalType": "uint256",
          "name": "characterIndex",
          "type": "uint256"
        }
      ],
      "name": "CharacterNFTMinted",
      "type": "event"
    },
    {
      "anonymous": false,
      "inputs": [
        {
          "indexed": true,
          "internalType": "address",
          "name": "from",
          "type": "address"
        },
        {
          "indexed": true,
          "internalType": "address",
          "name": "to",
          "type": "address"
        },
        {
          "indexed": true,
          "internalType": "uint256",
          "name": "tokenId",
          "type": "uint256"
        }
      ],
      "name": "Transfer",
      "type": "event"
    },
    {
      "inputs": [
        {
          "internalType": "address",
          "name": "to",
          "type": "address"
        },
        {
          "internalType": "uint256",
          "name": "tokenId",
          "type": "uint256"
        }
      ],
      "name": "approve",
      "outputs": [],
      "stateMutability": "nonpayable",
      "type": "function"
    },
    {
      "inputs": [],
      "name": "attackBoss",
      "outputs": [],
      "stateMutability": "nonpayable",
      "type": "function"
    },
    {
      "inputs": [
        {
          "internalType": "address",
          "name": "owner",
          "type": "address"
        }
      ],
      "name": "balanceOf",
      "outputs": [
        {
          "internalType": "uint256",
          "name": "",
          "type": "uint256"
        }
      ],
      "stateMutability": "view",
      "type": "function"
    },
    {
      "inputs": [],
      "name": "boss",
      "outputs": [
        {
          "internalType": "string",
          "name": "name",
          "type": "string"
        },
        {
          "internalType": "string",
          "name": "imageURI",
          "type": "string"
        },
        {
          "internalType": "uint256",
          "name": "hp",
          "type": "uint256"
        },
        {
          "internalType": "uint256",
          "name": "maxHp",
          "type": "uint256"
        },
        {
          "internalType": "uint256",
          "name": "attackDamage",
          "type": "uint256"
        }
      ],
      "stateMutability": "view",
      "type": "function"
    },
    {
      "inputs": [],
      "name": "checkIfUserHasNFT",
      "outputs": [
        {
          "components": [
            {
              "internalType": "uint256",
              "name": "characterIndex",
              "type": "uint256"
            },
            {
              "internalType": "string",
              "name": "name",
              "type": "string"
            },
            {
              "internalType": "string",
              "name": "imageURI",
              "type": "string"
            },
            {
              "internalType": "uint256",
              "name": "ugliness",
              "type": "uint256"
            },
            {
              "internalType": "uint256",
              "name": "hp",
              "type": "uint256"
            },
            {
              "internalType": "uint256",
              "name": "maxHp",
              "type": "uint256"
            },
            {
              "internalType": "uint256",
              "name": "attackDamage",
              "type": "uint256"
            }
          ],
          "internalType": "struct BattleGame.CharacterAttributes",
          "name": "",
          "type": "tuple"
        }
      ],
      "stateMutability": "view",
      "type": "function"
    },
    {
      "inputs": [],
      "name": "getAllDefaultCharacters",
      "outputs": [
        {
          "components": [
            {
              "internalType": "uint256",
              "name": "characterIndex",
              "type": "uint256"
            },
            {
              "internalType": "string",
              "name": "name",
              "type": "string"
            },
            {
              "internalType": "string",
              "name": "imageURI",
              "type": "string"
            },
            {
              "internalType": "uint256",
              "name": "ugliness",
              "type": "uint256"
            },
            {
              "internalType": "uint256",
              "name": "hp",
              "type": "uint256"
            },
            {
              "internalType": "uint256",
              "name": "maxHp",
              "type": "uint256"
            },
            {
              "internalType": "uint256",
              "name": "attackDamage",
              "type": "uint256"
            }
          ],
          "internalType": "struct BattleGame.CharacterAttributes[]",
          "name": "",
          "type": "tuple[]"
        }
      ],
      "stateMutability": "view",
      "type": "function"
    },
    {
      "inputs": [
        {
          "internalType": "uint256",
          "name": "tokenId",
          "type": "uint256"
        }
      ],
      "name": "getApproved",
      "outputs": [
        {
          "internalType": "address",
          "name": "",
          "type": "address"
        }
      ],
      "stateMutability": "view",
      "type": "function"
    },
    {
      "inputs": [],
      "name": "getBoss",
      "outputs": [
        {
          "components": [
            {
              "internalType": "string",
              "name": "name",
              "type": "string"
            },
            {
              "internalType": "string",
              "name": "imageURI",
              "type": "string"
            },
            {
              "internalType": "uint256",
              "name": "hp",
              "type": "uint256"
            },
            {
              "internalType": "uint256",
              "name": "maxHp",
              "type": "uint256"
            },
            {
              "internalType": "uint256",
              "name": "attackDamage",
              "type": "uint256"
            }
          ],
          "internalType": "struct BattleGame.Boss",
          "name": "",
          "type": "tuple"
        }
      ],
      "stateMutability": "view",
      "type": "function"
    },
    {
      "inputs": [
        {
          "internalType": "address",
          "name": "owner",
          "type": "address"
        },
        {
          "internalType": "address",
          "name": "operator",
          "type": "address"
        }
      ],
      "name": "isApprovedForAll",
      "outputs": [
        {
          "internalType": "bool",
          "name": "",
          "type": "bool"
        }
      ],
      "stateMutability": "view",
      "type": "function"
    },
    {
      "inputs": [
        {
          "internalType": "uint256",
          "name": "_characterIndex",
          "type": "uint256"
        }
      ],
      "name": "mintCharacter",
      "outputs": [],
      "stateMutability": "nonpayable",
      "type": "function"
    },
    {
      "inputs": [],
      "name": "name",
      "outputs": [
        {
          "internalType": "string",
          "name": "",
          "type": "string"
        }
      ],
      "stateMutability": "view",
      "type": "function"
    },
    {
      "inputs": [
        {
          "internalType": "uint256",
          "name": "",
          "type": "uint256"
        }
      ],
      "name": "nftHolderAttributes",
      "outputs": [
        {
          "internalType": "uint256",
          "name": "characterIndex",
          "type": "uint256"
        },
        {
          "internalType": "string",
          "name": "name",
          "type": "string"
        },
        {
          "internalType": "string",
          "name": "imageURI",
          "type": "string"
        },
        {
          "internalType": "uint256",
          "name": "ugliness",
          "type": "uint256"
        },
        {
          "internalType": "uint256",
          "name": "hp",
          "type": "uint256"
        },
        {
          "internalType": "uint256",
          "name": "maxHp",
          "type": "uint256"
        },
        {
          "internalType": "uint256",
          "name": "attackDamage",
          "type": "uint256"
        }
      ],
      "stateMutability": "view",
      "type": "function"
    },
    {
      "inputs": [
        {
          "internalType": "address",
          "name": "",
          "type": "address"
        }
      ],
      "name": "nftHolders",
      "outputs": [
        {
          "internalType": "uint256",
          "name": "",
          "type": "uint256"
        }
      ],
      "stateMutability": "view",
      "type": "function"
    },
    {
      "inputs": [
        {
          "internalType": "uint256",
          "name": "tokenId",
          "type": "uint256"
        }
      ],
      "name": "ownerOf",
      "outputs": [
        {
          "internalType": "address",
          "name": "",
          "type": "address"
        }
      ],
      "stateMutability": "view",
      "type": "function"
    },
    {
      "inputs": [
        {
          "internalType": "address",
          "name": "from",
          "type": "address"
        },
        {
          "internalType": "address",
          "name": "to",
          "type": "address"
        },
        {
          "internalType": "uint256",
          "name": "tokenId",
          "type": "uint256"
        }
      ],
      "name": "safeTransferFrom",
      "outputs": [],
      "stateMutability": "nonpayable",
      "type": "function"
    },
    {
      "inputs": [
        {
          "internalType": "address",
          "name": "from",
          "type": "address"
        },
        {
          "internalType": "address",
          "name": "to",
          "type": "address"
        },
        {
          "internalType": "uint256",
          "name": "tokenId",
          "type": "uint256"
        },
        {
          "internalType": "bytes",
          "name": "_data",
          "type": "bytes"
        }
      ],
      "name": "safeTransferFrom",
      "outputs": [],
      "stateMutability": "nonpayable",
      "type": "function"
    },
    {
      "inputs": [
        {
          "internalType": "address",
          "name": "operator",
          "type": "address"
        },
        {
          "internalType": "bool",
          "name": "approved",
          "type": "bool"
        }
      ],
      "name": "setApprovalForAll",
      "outputs": [],
      "stateMutability": "nonpayable",
      "type": "function"
    },
    {
      "inputs": [
        {
          "internalType": "bytes4",
          "name": "interfaceId",
          "type": "bytes4"
        }
      ],
      "name": "supportsInterface",
      "outputs": [
        {
          "internalType": "bool",
          "name": "",
          "type": "bool"
        }
      ],
      "stateMutability": "view",
      "type": "function"
    },
    {
      "inputs": [],
      "name": "symbol",
      "outputs": [
        {
          "internalType": "string",
          "name": "",
          "type": "string"
        }
      ],
      "stateMutability": "view",
      "type": "function"
    },
    {
      "inputs": [
        {
          "internalType": "uint256",
          "name": "_tokenId",
          "type": "uint256"
        }
      ],
      "name": "tokenURI",
      "outputs": [
        {
          "internalType": "string",
          "name": "",
          "type": "string"
        }
      ],
      "stateMutability": "view",
      "type": "function"
    },
    {
      "inputs": [
        {
          "internalType": "address",
          "name": "from",
          "type": "address"
        },
        {
          "internalType": "address",
          "name": "to",
          "type": "address"
        },
        {
          "internalType": "uint256",
          "name": "tokenId",
          "type": "uint256"
        }
      ],
      "name": "transferFrom",
      "outputs": [],
      "stateMutability": "nonpayable",
      "type": "function"
    }
  ],
  "bytecode": "0x60806040523480156200001157600080fd5b5060405162005bac38038062005bac833981810160405281019062000037919062000a5c565b6040518060400160405280600c81526020017f55676c7920546f6b656d6f6e00000000000000000000000000000000000000008152506040518060400160405280600581526020017f55474c59540000000000000000000000000000000000000000000000000000008152508160009080519060200190620000bb929190620007c4565b508060019080519060200190620000d4929190620007c4565b5050506040518060a0016040528085815260200184815260200183815260200183815260200182815250600a60008201518160000190805190602001906200011e929190620007c4565b5060208201518160010190805190602001906200013d929190620007c4565b50604082015181600201556060820151816003015560808201518160040155905050620002c06040518060600160405280602a815260200162005b82602a9139600a60000180546200018f9062000e59565b80601f0160208091040260200160405190810160405280929190818152602001828054620001bd9062000e59565b80156200020e5780601f10620001e2576101008083540402835291602001916200020e565b820191906000526020600020905b815481529060010190602001808311620001f057829003601f168201915b5050505050600a60020154600a60010180546200022b9062000e59565b80601f0160208091040260200160405190810160405280929190818152602001828054620002599062000e59565b8015620002aa5780601f106200027e57610100808354040283529160200191620002aa565b820191906000526020600020905b8154815290600101906020018083116200028c57829003601f168201915b50505050506200063060201b62001dad1760201c565b60005b8951811015620006205760076040518060e001604052808381526020018c84815181106200031a577f4e487b7100000000000000000000000000000000000000000000000000000000600052603260045260246000fd5b602002602001015181526020018b848151811062000361577f4e487b7100000000000000000000000000000000000000000000000000000000600052603260045260246000fd5b602002602001015181526020018a8481518110620003a8577f4e487b7100000000000000000000000000000000000000000000000000000000600052603260045260246000fd5b60200260200101518152602001898481518110620003ef577f4e487b7100000000000000000000000000000000000000000000000000000000600052603260045260246000fd5b6020026020010151815260200189848151811062000436577f4e487b7100000000000000000000000000000000000000000000000000000000600052603260045260246000fd5b602002602001015181526020018884815181106200047d577f4e487b7100000000000000000000000000000000000000000000000000000000600052603260045260246000fd5b60200260200101518152509080600181540180825580915050600190039060005260206000209060070201600090919091909150600082015181600001556020820151816001019080519060200190620004d9929190620007c4565b506040820151816002019080519060200190620004f8929190620007c4565b50606082015181600301556080820151816004015560a0820151816005015560c082015181600601555050620005f26040518060400160405280601d81526020017f55676c7920546f6b656d6f6e202573202825732075676c696e657373290000008152508b838151811062000597577f4e487b7100000000000000000000000000000000000000000000000000000000600052603260045260246000fd5b60200260200101518a8481518110620005d9577f4e487b7100000000000000000000000000000000000000000000000000000000600052603260045260246000fd5b6020026020010151620006dc60201b62001e4f1760201c565b6200060960066200078560201b62001eee1760201c565b60018162000618919062000dbc565b9050620002c3565b5050505050505050505062000f7d565b620006d6848484846040516024016200064d949392919062000c81565b6040516020818303038152906040527f8d142cdd000000000000000000000000000000000000000000000000000000007bffffffffffffffffffffffffffffffffffffffffffffffffffffffff19166020820180517bffffffffffffffffffffffffffffffffffffffffffffffffffffffff83818316178352505050506200079b60201b60201c565b50505050565b62000780838383604051602401620006f79392919062000c36565b6040516020818303038152906040527ff362ca59000000000000000000000000000000000000000000000000000000007bffffffffffffffffffffffffffffffffffffffffffffffffffffffff19166020820180517bffffffffffffffffffffffffffffffffffffffffffffffffffffffff83818316178352505050506200079b60201b60201c565b505050565b6001816000016000828254019250508190555050565b60008151905060006a636f6e736f6c652e6c6f679050602083016000808483855afa5050505050565b828054620007d29062000e59565b90600052602060002090601f016020900481019282620007f6576000855562000842565b82601f106200081157805160ff191683800117855562000842565b8280016001018555821562000842579182015b828111156200084157825182559160200191906001019062000824565b5b50905062000851919062000855565b5090565b5b808211156200087057600081600090555060010162000856565b5090565b60006200088b620008858462000d0c565b62000ce3565b90508083825260208201905082856020860282011115620008ab57600080fd5b60005b85811015620008fa57815167ffffffffffffffff811115620008cf57600080fd5b808601620008de898262000a18565b85526020850194506020840193505050600181019050620008ae565b5050509392505050565b60006200091b620009158462000d3b565b62000ce3565b905080838252602082019050828560208602820111156200093b57600080fd5b60005b858110156200096f578162000954888262000a45565b8452602084019350602083019250506001810190506200093e565b5050509392505050565b6000620009906200098a8462000d6a565b62000ce3565b905082815260208101848484011115620009a957600080fd5b620009b684828562000e23565b509392505050565b600082601f830112620009d057600080fd5b8151620009e284826020860162000874565b91505092915050565b600082601f830112620009fd57600080fd5b815162000a0f84826020860162000904565b91505092915050565b600082601f83011262000a2a57600080fd5b815162000a3c84826020860162000979565b91505092915050565b60008151905062000a568162000f63565b92915050565b60008060008060008060008060006101208a8c03121562000a7c57600080fd5b60008a015167ffffffffffffffff81111562000a9757600080fd5b62000aa58c828d01620009be565b99505060208a015167ffffffffffffffff81111562000ac357600080fd5b62000ad18c828d01620009be565b98505060408a015167ffffffffffffffff81111562000aef57600080fd5b62000afd8c828d01620009eb565b97505060608a015167ffffffffffffffff81111562000b1b57600080fd5b62000b298c828d01620009eb565b96505060808a015167ffffffffffffffff81111562000b4757600080fd5b62000b558c828d01620009eb565b95505060a08a015167ffffffffffffffff81111562000b7357600080fd5b62000b818c828d0162000a18565b94505060c08a015167ffffffffffffffff81111562000b9f57600080fd5b62000bad8c828d0162000a18565b93505060e062000bc08c828d0162000a45565b92505061010062000bd48c828d0162000a45565b9150509295985092959850929598565b600062000bf18262000da0565b62000bfd818562000dab565b935062000c0f81856020860162000e23565b62000c1a8162000f52565b840191505092915050565b62000c308162000e19565b82525050565b6000606082019050818103600083015262000c52818662000be4565b9050818103602083015262000c68818562000be4565b905062000c79604083018462000c25565b949350505050565b6000608082019050818103600083015262000c9d818762000be4565b9050818103602083015262000cb3818662000be4565b905062000cc4604083018562000c25565b818103606083015262000cd8818462000be4565b905095945050505050565b600062000cef62000d02565b905062000cfd828262000e8f565b919050565b6000604051905090565b600067ffffffffffffffff82111562000d2a5762000d2962000f23565b5b602082029050602081019050919050565b600067ffffffffffffffff82111562000d595762000d5862000f23565b5b602082029050602081019050919050565b600067ffffffffffffffff82111562000d885762000d8762000f23565b5b62000d938262000f52565b9050602081019050919050565b600081519050919050565b600082825260208201905092915050565b600062000dc98262000e19565b915062000dd68362000e19565b9250827fffffffffffffffffffffffffffffffffffffffffffffffffffffffffffffffff0382111562000e0e5762000e0d62000ec5565b5b828201905092915050565b6000819050919050565b60005b8381101562000e4357808201518184015260208101905062000e26565b8381111562000e53576000848401525b50505050565b6000600282049050600182168062000e7257607f821691505b6020821081141562000e895762000e8862000ef4565b5b50919050565b62000e9a8262000f52565b810181811067ffffffffffffffff8211171562000ebc5762000ebb62000f23565b5b80604052505050565b7f4e487b7100000000000000000000000000000000000000000000000000000000600052601160045260246000fd5b7f4e487b7100000000000000000000000000000000000000000000000000000000600052602260045260246000fd5b7f4e487b7100000000000000000000000000000000000000000000000000000000600052604160045260246000fd5b6000601f19601f8301169050919050565b62000f6e8162000e19565b811462000f7a57600080fd5b50565b614bf58062000f8d6000396000f3fe608060405234801561001057600080fd5b50600436106101375760003560e01c806398da4c95116100b8578063c772af391161007c578063c772af3914610366578063c87b56dd14610388578063c8cf27f4146103b8578063d4f24c5b146103d6578063e90eb7dc146103e0578063e985e9c5146103fc57610137565b806398da4c95146102bc578063a22cb465146102f2578063b88d4fde1461030e578063b953084e1461032a578063c76d9e7d1461034857610137565b806342842e0e116100ff57806342842e0e146101f25780636352211e1461020e57806370a082311461023e5780637df124a11461026e57806395d89b411461029e57610137565b806301ffc9a71461013c57806306fdde031461016c578063081812fc1461018a578063095ea7b3146101ba57806323b872dd146101d6575b600080fd5b6101566004803603810190610151919061312d565b61042c565b6040516101639190613a7d565b60405180910390f35b61017461050e565b6040516101819190613a98565b60405180910390f35b6101a4600480360381019061019f919061317f565b6105a0565b6040516101b191906139bd565b60405180910390f35b6101d460048036038101906101cf91906130f1565b610625565b005b6101f060048036038101906101eb9190612feb565b61073d565b005b61020c60048036038101906102079190612feb565b61079d565b005b6102286004803603810190610223919061317f565b6107bd565b60405161023591906139bd565b60405180910390f35b61025860048036038101906102539190612f86565b61086f565b6040516102659190613e9f565b60405180910390f35b61028860048036038101906102839190612f86565b610927565b6040516102959190613e9f565b60405180910390f35b6102a661093f565b6040516102b39190613a98565b60405180910390f35b6102d660048036038101906102d1919061317f565b6109d1565b6040516102e99796959493929190613eba565b60405180910390f35b61030c600480360381019061030791906130b5565b610b23565b005b6103286004803603810190610323919061303a565b610ca4565b005b610332610d06565b60405161033f9190613a5b565b60405180910390f35b610350610ebb565b60405161035d9190613e5b565b60405180910390f35b61036e611017565b60405161037f959493929190613bac565b60405180910390f35b6103a2600480360381019061039d919061317f565b61114b565b6040516103af9190613a98565b60405180910390f35b6103c0611384565b6040516103cd9190613e7d565b60405180910390f35b6103de611566565b005b6103fa60048036038101906103f5919061317f565b6118ca565b005b61041660048036038101906104119190612faf565b611d19565b6040516104239190613a7d565b60405180910390f35b60007f80ac58cd000000000000000000000000000000000000000000000000000000007bffffffffffffffffffffffffffffffffffffffffffffffffffffffff1916827bffffffffffffffffffffffffffffffffffffffffffffffffffffffff191614806104f757507f5b5e139f000000000000000000000000000000000000000000000000000000007bffffffffffffffffffffffffffffffffffffffffffffffffffffffff1916827bffffffffffffffffffffffffffffffffffffffffffffffffffffffff1916145b80610507575061050682611f04565b5b9050919050565b60606000805461051d9061420e565b80601f01602080910402602001604051908101604052809291908181526020018280546105499061420e565b80156105965780601f1061056b57610100808354040283529160200191610596565b820191906000526020600020905b81548152906001019060200180831161057957829003601f168201915b5050505050905090565b60006105ab82611f6e565b6105ea576040517f08c379a00000000000000000000000000000000000000000000000000000000081526004016105e190613ddb565b60405180910390fd5b6004600083815260200190815260200160002060009054906101000a900473ffffffffffffffffffffffffffffffffffffffff169050919050565b6000610630826107bd565b90508073ffffffffffffffffffffffffffffffffffffffff168373ffffffffffffffffffffffffffffffffffffffff1614156106a1576040517f08c379a000000000000000000000000000000000000000000000000000000000815260040161069890613e1b565b60405180910390fd5b8073ffffffffffffffffffffffffffffffffffffffff166106c0611fda565b73ffffffffffffffffffffffffffffffffffffffff1614806106ef57506106ee816106e9611fda565b611d19565b5b61072e576040517f08c379a000000000000000000000000000000000000000000000000000000000815260040161072590613d3b565b60405180910390fd5b6107388383611fe2565b505050565b61074e610748611fda565b8261209b565b61078d576040517f08c379a000000000000000000000000000000000000000000000000000000000815260040161078490613e3b565b60405180910390fd5b610798838383612179565b505050565b6107b883838360405180602001604052806000815250610ca4565b505050565b6000806002600084815260200190815260200160002060009054906101000a900473ffffffffffffffffffffffffffffffffffffffff169050600073ffffffffffffffffffffffffffffffffffffffff168173ffffffffffffffffffffffffffffffffffffffff161415610866576040517f08c379a000000000000000000000000000000000000000000000000000000000815260040161085d90613d7b565b60405180910390fd5b80915050919050565b60008073ffffffffffffffffffffffffffffffffffffffff168273ffffffffffffffffffffffffffffffffffffffff1614156108e0576040517f08c379a00000000000000000000000000000000000000000000000000000000081526004016108d790613d5b565b60405180910390fd5b600360008373ffffffffffffffffffffffffffffffffffffffff1673ffffffffffffffffffffffffffffffffffffffff168152602001908152602001600020549050919050565b60096020528060005260406000206000915090505481565b60606001805461094e9061420e565b80601f016020809104026020016040519081016040528092919081815260200182805461097a9061420e565b80156109c75780601f1061099c576101008083540402835291602001916109c7565b820191906000526020600020905b8154815290600101906020018083116109aa57829003601f168201915b5050505050905090565b60086020528060005260406000206000915090508060000154908060010180546109fa9061420e565b80601f0160208091040260200160405190810160405280929190818152602001828054610a269061420e565b8015610a735780601f10610a4857610100808354040283529160200191610a73565b820191906000526020600020905b815481529060010190602001808311610a5657829003601f168201915b505050505090806002018054610a889061420e565b80601f0160208091040260200160405190810160405280929190818152602001828054610ab49061420e565b8015610b015780601f10610ad657610100808354040283529160200191610b01565b820191906000526020600020905b815481529060010190602001808311610ae457829003601f168201915b5050505050908060030154908060040154908060050154908060060154905087565b610b2b611fda565b73ffffffffffffffffffffffffffffffffffffffff168273ffffffffffffffffffffffffffffffffffffffff161415610b99576040517f08c379a0000000000000000000000000000000000000000000000000000000008152600401610b9090613cfb565b60405180910390fd5b8060056000610ba6611fda565b73ffffffffffffffffffffffffffffffffffffffff1673ffffffffffffffffffffffffffffffffffffffff16815260200190815260200160002060008473ffffffffffffffffffffffffffffffffffffffff1673ffffffffffffffffffffffffffffffffffffffff16815260200190815260200160002060006101000a81548160ff0219169083151502179055508173ffffffffffffffffffffffffffffffffffffffff16610c53611fda565b73ffffffffffffffffffffffffffffffffffffffff167f17307eab39ab6107e8899845ad3d59bd9653f200f220920489ca2b5937696c3183604051610c989190613a7d565b60405180910390a35050565b610cb5610caf611fda565b8361209b565b610cf4576040517f08c379a0000000000000000000000000000000000000000000000000000000008152600401610ceb90613e3b565b60405180910390fd5b610d00848484846123d5565b50505050565b60606007805480602002602001604051908101604052809291908181526020016000905b82821015610eb257838290600052602060002090600702016040518060e001604052908160008201548152602001600182018054610d679061420e565b80601f0160208091040260200160405190810160405280929190818152602001828054610d939061420e565b8015610de05780601f10610db557610100808354040283529160200191610de0565b820191906000526020600020905b815481529060010190602001808311610dc357829003601f168201915b50505050508152602001600282018054610df99061420e565b80601f0160208091040260200160405190810160405280929190818152602001828054610e259061420e565b8015610e725780601f10610e4757610100808354040283529160200191610e72565b820191906000526020600020905b815481529060010190602001808311610e5557829003601f168201915b5050505050815260200160038201548152602001600482015481526020016005820154815260200160068201548152505081526020019060010190610d2a565b50505050905090565b610ec3612da6565b600a6040518060a0016040529081600082018054610ee09061420e565b80601f0160208091040260200160405190810160405280929190818152602001828054610f0c9061420e565b8015610f595780601f10610f2e57610100808354040283529160200191610f59565b820191906000526020600020905b815481529060010190602001808311610f3c57829003601f168201915b50505050508152602001600182018054610f729061420e565b80601f0160208091040260200160405190810160405280929190818152602001828054610f9e9061420e565b8015610feb5780601f10610fc057610100808354040283529160200191610feb565b820191906000526020600020905b815481529060010190602001808311610fce57829003601f168201915b505050505081526020016002820154815260200160038201548152602001600482015481525050905090565b600a8060000180546110289061420e565b80601f01602080910402602001604051908101604052809291908181526020018280546110549061420e565b80156110a15780601f10611076576101008083540402835291602001916110a1565b820191906000526020600020905b81548152906001019060200180831161108457829003601f168201915b5050505050908060010180546110b69061420e565b80601f01602080910402602001604051908101604052809291908181526020018280546110e29061420e565b801561112f5780601f106111045761010080835404028352916020019161112f565b820191906000526020600020905b81548152906001019060200180831161111257829003601f168201915b5050505050908060020154908060030154908060040154905085565b60606000600860008481526020019081526020016000206040518060e0016040529081600082015481526020016001820180546111879061420e565b80601f01602080910402602001604051908101604052809291908181526020018280546111b39061420e565b80156112005780601f106111d557610100808354040283529160200191611200565b820191906000526020600020905b8154815290600101906020018083116111e357829003601f168201915b505050505081526020016002820180546112199061420e565b80601f01602080910402602001604051908101604052809291908181526020018280546112459061420e565b80156112925780601f1061126757610100808354040283529160200191611292565b820191906000526020600020905b81548152906001019060200180831161127557829003601f168201915b50505050508152602001600382015481526020016004820154815260200160058201548152602001600682015481525050905060006112d48260600151612431565b905060006112e58360a00151612431565b905060006112f68460800151612431565b905060006113078560c00151612431565b9050600061134f866020015161131c8a612431565b88604001518887898860405160200161133b97969594939291906138bd565b6040516020818303038152906040526125de565b9050600081604051602001611364919061399b565b604051602081830303815290604052905080975050505050505050919050565b61138c612dd5565b6000600960003373ffffffffffffffffffffffffffffffffffffffff1673ffffffffffffffffffffffffffffffffffffffff168152602001908152602001600020549050600081111561155557600860008281526020019081526020016000206040518060e0016040529081600082015481526020016001820180546114119061420e565b80601f016020809104026020016040519081016040528092919081815260200182805461143d9061420e565b801561148a5780601f1061145f5761010080835404028352916020019161148a565b820191906000526020600020905b81548152906001019060200180831161146d57829003601f168201915b505050505081526020016002820180546114a39061420e565b80601f01602080910402602001604051908101604052809291908181526020018280546114cf9061420e565b801561151c5780601f106114f15761010080835404028352916020019161151c565b820191906000526020600020905b8154815290600101906020018083116114ff57829003601f168201915b50505050508152602001600382015481526020016004820154815260200160058201548152602001600682015481525050915050611563565b61155d612dd5565b80925050505b90565b6000600960003373ffffffffffffffffffffffffffffffffffffffff1673ffffffffffffffffffffffffffffffffffffffff16815260200190815260200160002054905060006008600083815260200190815260200160002090506116796040518060600160405280603c8152602001614b84603c91398260010180546115ec9061420e565b80601f01602080910402602001604051908101604052809291908181526020018280546116189061420e565b80156116655780601f1061163a57610100808354040283529160200191611665565b820191906000526020600020905b81548152906001019060200180831161164857829003601f168201915b50505050508360040154846006015461279c565b6117516040518060400160405280601b81526020017f426f73732025732068617320257320485020616e642025732041440000000000815250600a60000180546116c29061420e565b80601f01602080910402602001604051908101604052809291908181526020018280546116ee9061420e565b801561173b5780601f106117105761010080835404028352916020019161173b565b820191906000526020600020905b81548152906001019060200180831161171e57829003601f168201915b5050505050600a60020154600a6004015461279c565b6000816004015411611798576040517f08c379a000000000000000000000000000000000000000000000000000000000815260040161178f90613d9b565b60405180910390fd5b6000600a60020154116117e0576040517f08c379a00000000000000000000000000000000000000000000000000000000081526004016117d790613c9b565b60405180910390fd5b8060060154600a600201541015611801576000600a60020181905550611820565b8060060154600a600201546118169190614124565b600a600201819055505b600a6004015481600401541015611840576000816004018190555061185e565b600a6004015481600401546118559190614124565b81600401819055505b611884604051806060016040528060288152602001614b2e60289139826004015461283e565b7f838ab28464562786a6c4ab2311964b82fa60bd9b14aa7e856af1f3f18d41a414600a6002015482600401546040516118be929190613f37565b60405180910390a15050565b60006118d660066128da565b90506118e233826128e8565b6040518060e001604052808381526020016007848154811061192d577f4e487b7100000000000000000000000000000000000000000000000000000000600052603260045260246000fd5b906000526020600020906007020160010180546119499061420e565b80601f01602080910402602001604051908101604052809291908181526020018280546119759061420e565b80156119c25780601f10611997576101008083540402835291602001916119c2565b820191906000526020600020905b8154815290600101906020018083116119a557829003601f168201915b5050505050815260200160078481548110611a06577f4e487b7100000000000000000000000000000000000000000000000000000000600052603260045260246000fd5b90600052602060002090600702016002018054611a229061420e565b80601f0160208091040260200160405190810160405280929190818152602001828054611a4e9061420e565b8015611a9b5780601f10611a7057610100808354040283529160200191611a9b565b820191906000526020600020905b815481529060010190602001808311611a7e57829003601f168201915b5050505050815260200160078481548110611adf577f4e487b7100000000000000000000000000000000000000000000000000000000600052603260045260246000fd5b906000526020600020906007020160030154815260200160078481548110611b30577f4e487b7100000000000000000000000000000000000000000000000000000000600052603260045260246000fd5b906000526020600020906007020160040154815260200160078481548110611b81577f4e487b7100000000000000000000000000000000000000000000000000000000600052603260045260246000fd5b906000526020600020906007020160040154815260200160078481548110611bd2577f4e487b7100000000000000000000000000000000000000000000000000000000600052603260045260246000fd5b90600052602060002090600702016006015481525060086000838152602001908152602001600020600082015181600001556020820151816001019080519060200190611c20929190612e12565b506040820151816002019080519060200190611c3d929190612e12565b50606082015181600301556080820151816004015560a0820151816005015560c08201518160060155905050611c8c6040518060600160405280602e8152602001614b56602e91398284612906565b80600960003373ffffffffffffffffffffffffffffffffffffffff1673ffffffffffffffffffffffffffffffffffffffff16815260200190815260200160002081905550611cda6006611eee565b7f4bc303fd457a97b4691b9af582ce71868a3d258638c8d4f8c60988a0f0bfb8cd338284604051611d0d93929190613a24565b60405180910390a15050565b6000600560008473ffffffffffffffffffffffffffffffffffffffff1673ffffffffffffffffffffffffffffffffffffffff16815260200190815260200160002060008373ffffffffffffffffffffffffffffffffffffffff1673ffffffffffffffffffffffffffffffffffffffff16815260200190815260200160002060009054906101000a900460ff16905092915050565b611e4984848484604051602401611dc79493929190613aff565b6040516020818303038152906040527f8d142cdd000000000000000000000000000000000000000000000000000000007bffffffffffffffffffffffffffffffffffffffffffffffffffffffff19166020820180517bffffffffffffffffffffffffffffffffffffffffffffffffffffffff83818316178352505050506129a5565b50505050565b611ee9838383604051602401611e6793929190613aba565b6040516020818303038152906040527ff362ca59000000000000000000000000000000000000000000000000000000007bffffffffffffffffffffffffffffffffffffffffffffffffffffffff19166020820180517bffffffffffffffffffffffffffffffffffffffffffffffffffffffff83818316178352505050506129a5565b505050565b6001816000016000828254019250508190555050565b60007f01ffc9a7000000000000000000000000000000000000000000000000000000007bffffffffffffffffffffffffffffffffffffffffffffffffffffffff1916827bffffffffffffffffffffffffffffffffffffffffffffffffffffffff1916149050919050565b60008073ffffffffffffffffffffffffffffffffffffffff166002600084815260200190815260200160002060009054906101000a900473ffffffffffffffffffffffffffffffffffffffff1673ffffffffffffffffffffffffffffffffffffffff1614159050919050565b600033905090565b816004600083815260200190815260200160002060006101000a81548173ffffffffffffffffffffffffffffffffffffffff021916908373ffffffffffffffffffffffffffffffffffffffff160217905550808273ffffffffffffffffffffffffffffffffffffffff16612055836107bd565b73ffffffffffffffffffffffffffffffffffffffff167f8c5be1e5ebec7d5bd14f71427d1e84f3dd0314c0f7b2291e5b200ac8c7c3b92560405160405180910390a45050565b60006120a682611f6e565b6120e5576040517f08c379a00000000000000000000000000000000000000000000000000000000081526004016120dc90613d1b565b60405180910390fd5b60006120f0836107bd565b90508073ffffffffffffffffffffffffffffffffffffffff168473ffffffffffffffffffffffffffffffffffffffff16148061215f57508373ffffffffffffffffffffffffffffffffffffffff16612147846105a0565b73ffffffffffffffffffffffffffffffffffffffff16145b80612170575061216f8185611d19565b5b91505092915050565b8273ffffffffffffffffffffffffffffffffffffffff16612199826107bd565b73ffffffffffffffffffffffffffffffffffffffff16146121ef576040517f08c379a00000000000000000000000000000000000000000000000000000000081526004016121e690613dfb565b60405180910390fd5b600073ffffffffffffffffffffffffffffffffffffffff168273ffffffffffffffffffffffffffffffffffffffff16141561225f576040517f08c379a000000000000000000000000000000000000000000000000000000000815260040161225690613cdb565b60405180910390fd5b61226a8383836129ce565b612275600082611fe2565b6001600360008573ffffffffffffffffffffffffffffffffffffffff1673ffffffffffffffffffffffffffffffffffffffff16815260200190815260200160002060008282546122c59190614124565b925050819055506001600360008473ffffffffffffffffffffffffffffffffffffffff1673ffffffffffffffffffffffffffffffffffffffff168152602001908152602001600020600082825461231c9190614043565b92505081905550816002600083815260200190815260200160002060006101000a81548173ffffffffffffffffffffffffffffffffffffffff021916908373ffffffffffffffffffffffffffffffffffffffff160217905550808273ffffffffffffffffffffffffffffffffffffffff168473ffffffffffffffffffffffffffffffffffffffff167fddf252ad1be2c89b69c2b068fc378daa952ba7f163c4a11628f55a4df523b3ef60405160405180910390a4505050565b6123e0848484612179565b6123ec848484846129d3565b61242b576040517f08c379a000000000000000000000000000000000000000000000000000000000815260040161242290613c7b565b60405180910390fd5b50505050565b60606000821415612479576040518060400160405280600181526020017f300000000000000000000000000000000000000000000000000000000000000081525090506125d9565b600082905060005b600082146124ab57808061249490614271565b915050600a826124a49190614099565b9150612481565b60008167ffffffffffffffff8111156124ed577f4e487b7100000000000000000000000000000000000000000000000000000000600052604160045260246000fd5b6040519080825280601f01601f19166020018201604052801561251f5781602001600182028036833780820191505090505b5090505b600085146125d2576001826125389190614124565b9150600a8561254791906142ba565b60306125539190614043565b60f81b81838151811061258f577f4e487b7100000000000000000000000000000000000000000000000000000000600052603260045260246000fd5b60200101907effffffffffffffffffffffffffffffffffffffffffffffffffffffffffffff1916908160001a905350600a856125cb9190614099565b9450612523565b8093505050505b919050565b606060008251905060008114156126075760405180602001604052806000815250915050612797565b600060036002836126189190614043565b6126229190614099565b600461262e91906140ca565b9050600060208261263f9190614043565b67ffffffffffffffff81111561267e577f4e487b7100000000000000000000000000000000000000000000000000000000600052604160045260246000fd5b6040519080825280601f01601f1916602001820160405280156126b05781602001600182028036833780820191505090505b5090506000604051806060016040528060408152602001614aee604091399050600181016020830160005b868110156127545760038101905062ffffff818a015116603f8160121c168401518060081b905060ff603f83600c1c1686015116810190508060081b905060ff603f8360061c1686015116810190508060081b905060ff603f831686015116810190508060e01b905080845260048401935050506126db565b50600386066001811461276e576002811461277e57612789565b613d3d60f01b6002830352612789565b603d60f81b60018303525b508484525050819450505050505b919050565b612838848484846040516024016127b69493929190613b59565b6040516020818303038152906040527fd5cf17d0000000000000000000000000000000000000000000000000000000007bffffffffffffffffffffffffffffffffffffffffffffffffffffffff19166020820180517bffffffffffffffffffffffffffffffffffffffffffffffffffffffff83818316178352505050506129a5565b50505050565b6128d68282604051602401612854929190613c0d565b6040516020818303038152906040527f9710a9d0000000000000000000000000000000000000000000000000000000007bffffffffffffffffffffffffffffffffffffffffffffffffffffffff19166020820180517bffffffffffffffffffffffffffffffffffffffffffffffffffffffff83818316178352505050506129a5565b5050565b600081600001549050919050565b612902828260405180602001604052806000815250612b6a565b5050565b6129a083838360405160240161291e93929190613c3d565b6040516020818303038152906040527f969cdd03000000000000000000000000000000000000000000000000000000007bffffffffffffffffffffffffffffffffffffffffffffffffffffffff19166020820180517bffffffffffffffffffffffffffffffffffffffffffffffffffffffff83818316178352505050506129a5565b505050565b60008151905060006a636f6e736f6c652e6c6f679050602083016000808483855afa5050505050565b505050565b60006129f48473ffffffffffffffffffffffffffffffffffffffff16612bc5565b15612b5d578373ffffffffffffffffffffffffffffffffffffffff1663150b7a02612a1d611fda565b8786866040518563ffffffff1660e01b8152600401612a3f94939291906139d8565b602060405180830381600087803b158015612a5957600080fd5b505af1925050508015612a8a57506040513d601f19601f82011682018060405250810190612a879190613156565b60015b612b0d573d8060008114612aba576040519150601f19603f3d011682016040523d82523d6000602084013e612abf565b606091505b50600081511415612b05576040517f08c379a0000000000000000000000000000000000000000000000000000000008152600401612afc90613c7b565b60405180910390fd5b805181602001fd5b63150b7a0260e01b7bffffffffffffffffffffffffffffffffffffffffffffffffffffffff1916817bffffffffffffffffffffffffffffffffffffffffffffffffffffffff191614915050612b62565b600190505b949350505050565b612b748383612bd8565b612b8160008484846129d3565b612bc0576040517f08c379a0000000000000000000000000000000000000000000000000000000008152600401612bb790613c7b565b60405180910390fd5b505050565b600080823b905060008111915050919050565b600073ffffffffffffffffffffffffffffffffffffffff168273ffffffffffffffffffffffffffffffffffffffff161415612c48576040517f08c379a0000000000000000000000000000000000000000000000000000000008152600401612c3f90613dbb565b60405180910390fd5b612c5181611f6e565b15612c91576040517f08c379a0000000000000000000000000000000000000000000000000000000008152600401612c8890613cbb565b60405180910390fd5b612c9d600083836129ce565b6001600360008473ffffffffffffffffffffffffffffffffffffffff1673ffffffffffffffffffffffffffffffffffffffff1681526020019081526020016000206000828254612ced9190614043565b92505081905550816002600083815260200190815260200160002060006101000a81548173ffffffffffffffffffffffffffffffffffffffff021916908373ffffffffffffffffffffffffffffffffffffffff160217905550808273ffffffffffffffffffffffffffffffffffffffff16600073ffffffffffffffffffffffffffffffffffffffff167fddf252ad1be2c89b69c2b068fc378daa952ba7f163c4a11628f55a4df523b3ef60405160405180910390a45050565b6040518060a0016040528060608152602001606081526020016000815260200160008152602001600081525090565b6040518060e00160405280600081526020016060815260200160608152602001600081526020016000815260200160008152602001600081525090565b828054612e1e9061420e565b90600052602060002090601f016020900481019282612e405760008555612e87565b82601f10612e5957805160ff1916838001178555612e87565b82800160010185558215612e87579182015b82811115612e86578251825591602001919060010190612e6b565b5b509050612e949190612e98565b5090565b5b80821115612eb1576000816000905550600101612e99565b5090565b6000612ec8612ec384613f85565b613f60565b905082815260208101848484011115612ee057600080fd5b612eeb8482856141cc565b509392505050565b600081359050612f0281614a91565b92915050565b600081359050612f1781614aa8565b92915050565b600081359050612f2c81614abf565b92915050565b600081519050612f4181614abf565b92915050565b600082601f830112612f5857600080fd5b8135612f68848260208601612eb5565b91505092915050565b600081359050612f8081614ad6565b92915050565b600060208284031215612f9857600080fd5b6000612fa684828501612ef3565b91505092915050565b60008060408385031215612fc257600080fd5b6000612fd085828601612ef3565b9250506020612fe185828601612ef3565b9150509250929050565b60008060006060848603121561300057600080fd5b600061300e86828701612ef3565b935050602061301f86828701612ef3565b925050604061303086828701612f71565b9150509250925092565b6000806000806080858703121561305057600080fd5b600061305e87828801612ef3565b945050602061306f87828801612ef3565b935050604061308087828801612f71565b925050606085013567ffffffffffffffff81111561309d57600080fd5b6130a987828801612f47565b91505092959194509250565b600080604083850312156130c857600080fd5b60006130d685828601612ef3565b92505060206130e785828601612f08565b9150509250929050565b6000806040838503121561310457600080fd5b600061311285828601612ef3565b925050602061312385828601612f71565b9150509250929050565b60006020828403121561313f57600080fd5b600061314d84828501612f1d565b91505092915050565b60006020828403121561316857600080fd5b600061317684828501612f32565b91505092915050565b60006020828403121561319157600080fd5b600061319f84828501612f71565b91505092915050565b60006131b48383613759565b905092915050565b6131c581614158565b82525050565b60006131d682613fc6565b6131e08185613ff4565b9350836020820285016131f285613fb6565b8060005b8581101561322e578484038952815161320f85826131a8565b945061321a83613fe7565b925060208a019950506001810190506131f6565b50829750879550505050505092915050565b6132498161416a565b82525050565b600061325a82613fd1565b6132648185614005565b93506132748185602086016141db565b61327d816143a7565b840191505092915050565b600061329382613fdc565b61329d8185614016565b93506132ad8185602086016141db565b6132b6816143a7565b840191505092915050565b60006132cc82613fdc565b6132d68185614027565b93506132e68185602086016141db565b6132ef816143a7565b840191505092915050565b600061330582613fdc565b61330f8185614038565b935061331f8185602086016141db565b80840191505092915050565b6000613338602c83614038565b9150613343826143b8565b602c82019050919050565b600061335b600283614038565b915061336682614407565b600282019050919050565b600061337e600b83614038565b915061338982614430565b600b82019050919050565b60006133a1601283614038565b91506133ac82614459565b601282019050919050565b60006133c4603283614027565b91506133cf82614482565b604082019050919050565b60006133e7602883614027565b91506133f2826144d1565b604082019050919050565b600061340a601c83614027565b915061341582614520565b602082019050919050565b600061342d600e83614038565b915061343882614549565b600e82019050919050565b6000613450602483614027565b915061345b82614572565b604082019050919050565b6000613473601983614027565b915061347e826145c1565b602082019050919050565b6000613496602c83614027565b91506134a1826145ea565b604082019050919050565b60006134b9602a83614038565b91506134c482614639565b602a82019050919050565b60006134dc603883614027565b91506134e782614688565b604082019050919050565b60006134ff602a83614027565b915061350a826146d7565b604082019050919050565b6000613522602983614027565b915061352d82614726565b604082019050919050565b6000613545606083614038565b915061355082614775565b606082019050919050565b6000613568602d83614027565b9150613573826147ea565b604082019050919050565b600061358b602083614027565b915061359682614839565b602082019050919050565b60006135ae600183614038565b91506135b982614862565b600182019050919050565b60006135d1602c83614027565b91506135dc8261488b565b604082019050919050565b60006135f4602983614027565b91506135ff826148da565b604082019050919050565b6000613617600a83614038565b915061362282614929565b600a82019050919050565b600061363a600283614038565b915061364582614952565b600282019050919050565b600061365d602183614027565b91506136688261497b565b604082019050919050565b6000613680601d83614038565b915061368b826149ca565b601d82019050919050565b60006136a3603183614027565b91506136ae826149f3565b604082019050919050565b60006136c6602583614038565b91506136d182614a42565b602582019050919050565b600060a08301600083015184820360008601526136f98282613288565b915050602083015184820360208601526137138282613288565b9150506040830151613728604086018261389f565b50606083015161373b606086018261389f565b50608083015161374e608086018261389f565b508091505092915050565b600060e083016000830151613771600086018261389f565b50602083015184820360208601526137898282613288565b915050604083015184820360408601526137a38282613288565b91505060608301516137b8606086018261389f565b5060808301516137cb608086018261389f565b5060a08301516137de60a086018261389f565b5060c08301516137f160c086018261389f565b508091505092915050565b600060e083016000830151613814600086018261389f565b506020830151848203602086015261382c8282613288565b915050604083015184820360408601526138468282613288565b915050606083015161385b606086018261389f565b50608083015161386e608086018261389f565b5060a083015161388160a086018261389f565b5060c083015161389460c086018261389f565b508091505092915050565b6138a8816141c2565b82525050565b6138b7816141c2565b82525050565b60006138c88261360a565b91506138d4828a6132fa565b91506138df82613371565b91506138eb82896132fa565b91506138f682613538565b915061390282886132fa565b915061390d82613394565b9150613918826136b9565b915061392482876132fa565b915061392f8261332b565b915061393b82866132fa565b915061394682613420565b915061395282856132fa565b915061395d8261334e565b9150613968826134ac565b915061397482846132fa565b915061397f826135a1565b915061398a8261362d565b915081905098975050505050505050565b60006139a682613673565b91506139b282846132fa565b915081905092915050565b60006020820190506139d260008301846131bc565b92915050565b60006080820190506139ed60008301876131bc565b6139fa60208301866131bc565b613a0760408301856138ae565b8181036060830152613a19818461324f565b905095945050505050565b6000606082019050613a3960008301866131bc565b613a4660208301856138ae565b613a5360408301846138ae565b949350505050565b60006020820190508181036000830152613a7581846131cb565b905092915050565b6000602082019050613a926000830184613240565b92915050565b60006020820190508181036000830152613ab281846132c1565b905092915050565b60006060820190508181036000830152613ad481866132c1565b90508181036020830152613ae881856132c1565b9050613af760408301846138ae565b949350505050565b60006080820190508181036000830152613b1981876132c1565b90508181036020830152613b2d81866132c1565b9050613b3c60408301856138ae565b8181036060830152613b4e81846132c1565b905095945050505050565b60006080820190508181036000830152613b7381876132c1565b90508181036020830152613b8781866132c1565b9050613b9660408301856138ae565b613ba360608301846138ae565b95945050505050565b600060a0820190508181036000830152613bc681886132c1565b90508181036020830152613bda81876132c1565b9050613be960408301866138ae565b613bf660608301856138ae565b613c0360808301846138ae565b9695505050505050565b60006040820190508181036000830152613c2781856132c1565b9050613c3660208301846138ae565b9392505050565b60006060820190508181036000830152613c5781866132c1565b9050613c6660208301856138ae565b613c7360408301846138ae565b949350505050565b60006020820190508181036000830152613c94816133b7565b9050919050565b60006020820190508181036000830152613cb4816133da565b9050919050565b60006020820190508181036000830152613cd4816133fd565b9050919050565b60006020820190508181036000830152613cf481613443565b9050919050565b60006020820190508181036000830152613d1481613466565b9050919050565b60006020820190508181036000830152613d3481613489565b9050919050565b60006020820190508181036000830152613d54816134cf565b9050919050565b60006020820190508181036000830152613d74816134f2565b9050919050565b60006020820190508181036000830152613d9481613515565b9050919050565b60006020820190508181036000830152613db48161355b565b9050919050565b60006020820190508181036000830152613dd48161357e565b9050919050565b60006020820190508181036000830152613df4816135c4565b9050919050565b60006020820190508181036000830152613e14816135e7565b9050919050565b60006020820190508181036000830152613e3481613650565b9050919050565b60006020820190508181036000830152613e5481613696565b9050919050565b60006020820190508181036000830152613e7581846136dc565b905092915050565b60006020820190508181036000830152613e9781846137fc565b905092915050565b6000602082019050613eb460008301846138ae565b92915050565b600060e082019050613ecf600083018a6138ae565b8181036020830152613ee181896132c1565b90508181036040830152613ef581886132c1565b9050613f0460608301876138ae565b613f1160808301866138ae565b613f1e60a08301856138ae565b613f2b60c08301846138ae565b98975050505050505050565b6000604082019050613f4c60008301856138ae565b613f5960208301846138ae565b9392505050565b6000613f6a613f7b565b9050613f768282614240565b919050565b6000604051905090565b600067ffffffffffffffff821115613fa057613f9f614378565b5b613fa9826143a7565b9050602081019050919050565b6000819050602082019050919050565b600081519050919050565b600081519050919050565b600081519050919050565b6000602082019050919050565b600082825260208201905092915050565b600082825260208201905092915050565b600082825260208201905092915050565b600082825260208201905092915050565b600081905092915050565b600061404e826141c2565b9150614059836141c2565b9250827fffffffffffffffffffffffffffffffffffffffffffffffffffffffffffffffff0382111561408e5761408d6142eb565b5b828201905092915050565b60006140a4826141c2565b91506140af836141c2565b9250826140bf576140be61431a565b5b828204905092915050565b60006140d5826141c2565b91506140e0836141c2565b9250817fffffffffffffffffffffffffffffffffffffffffffffffffffffffffffffffff0483118215151615614119576141186142eb565b5b828202905092915050565b600061412f826141c2565b915061413a836141c2565b92508282101561414d5761414c6142eb565b5b828203905092915050565b6000614163826141a2565b9050919050565b60008115159050919050565b60007fffffffff0000000000000000000000000000000000000000000000000000000082169050919050565b600073ffffffffffffffffffffffffffffffffffffffff82169050919050565b6000819050919050565b82818337600083830152505050565b60005b838110156141f95780820151818401526020810190506141de565b83811115614208576000848401525b50505050565b6000600282049050600182168061422657607f821691505b6020821081141561423a57614239614349565b5b50919050565b614249826143a7565b810181811067ffffffffffffffff8211171561426857614267614378565b5b80604052505050565b600061427c826141c2565b91507fffffffffffffffffffffffffffffffffffffffffffffffffffffffffffffffff8214156142af576142ae6142eb565b5b600182019050919050565b60006142c5826141c2565b91506142d0836141c2565b9250826142e0576142df61431a565b5b828206905092915050565b7f4e487b7100000000000000000000000000000000000000000000000000000000600052601160045260246000fd5b7f4e487b7100000000000000000000000000000000000000000000000000000000600052601260045260246000fd5b7f4e487b7100000000000000000000000000000000000000000000000000000000600052602260045260246000fd5b7f4e487b7100000000000000000000000000000000000000000000000000000000600052604160045260246000fd5b6000601f19601f8301169050919050565b7f7d2c7b202274726169745f74797065223a20224865616c746820506f696e747360008201527f222c202276616c7565223a200000000000000000000000000000000000000000602082015250565b7f7d2c000000000000000000000000000000000000000000000000000000000000600082015250565b7f202d2d204e465420233a20000000000000000000000000000000000000000000600082015250565b7f222c202261747472696275746573223a205b0000000000000000000000000000600082015250565b7f4552433732313a207472616e7366657220746f206e6f6e20455243373231526560008201527f63656976657220696d706c656d656e7465720000000000000000000000000000602082015250565b7f4572726f723a20626f7373206d757374206861766520485020746f206174746160008201527f636b20626f73732e000000000000000000000000000000000000000000000000602082015250565b7f4552433732313a20746f6b656e20616c7265616479206d696e74656400000000600082015250565b7f2c20226d61785f76616c7565223a000000000000000000000000000000000000600082015250565b7f4552433732313a207472616e7366657220746f20746865207a65726f2061646460008201527f7265737300000000000000000000000000000000000000000000000000000000602082015250565b7f4552433732313a20617070726f766520746f2063616c6c657200000000000000600082015250565b7f4552433732313a206f70657261746f7220717565727920666f72206e6f6e657860008201527f697374656e7420746f6b656e0000000000000000000000000000000000000000602082015250565b7f7b202274726169745f74797065223a202241747461636b2044616d616765222c60008201527f202276616c7565223a2000000000000000000000000000000000000000000000602082015250565b7f4552433732313a20617070726f76652063616c6c6572206973206e6f74206f7760008201527f6e6572206e6f7220617070726f76656420666f7220616c6c0000000000000000602082015250565b7f4552433732313a2062616c616e636520717565727920666f7220746865207a6560008201527f726f206164647265737300000000000000000000000000000000000000000000602082015250565b7f4552433732313a206f776e657220717565727920666f72206e6f6e657869737460008201527f656e7420746f6b656e0000000000000000000000000000000000000000000000602082015250565b7f222c20226465736372697074696f6e223a20225468697320697320616e204e4660008201527f542074686174206c6574732070656f706c6520706c617920696e20746865206760208201527f616d652055676c7920546f6b656d6f6e657321222c2022696d616765223a2022604082015250565b7f4572726f723a20636861726163746572206d757374206861766520485020746f60008201527f2061747461636b20626f73732e00000000000000000000000000000000000000602082015250565b7f4552433732313a206d696e7420746f20746865207a65726f2061646472657373600082015250565b7f7d00000000000000000000000000000000000000000000000000000000000000600082015250565b7f4552433732313a20617070726f76656420717565727920666f72206e6f6e657860008201527f697374656e7420746f6b656e0000000000000000000000000000000000000000602082015250565b7f4552433732313a207472616e73666572206f6620746f6b656e2074686174206960008201527f73206e6f74206f776e0000000000000000000000000000000000000000000000602082015250565b7f7b226e616d65223a202200000000000000000000000000000000000000000000600082015250565b7f5d7d000000000000000000000000000000000000000000000000000000000000600082015250565b7f4552433732313a20617070726f76616c20746f2063757272656e74206f776e6560008201527f7200000000000000000000000000000000000000000000000000000000000000602082015250565b7f646174613a6170706c69636174696f6e2f6a736f6e3b6261736536342c000000600082015250565b7f4552433732313a207472616e736665722063616c6c6572206973206e6f74206f60008201527f776e6572206e6f7220617070726f766564000000000000000000000000000000602082015250565b7f7b202274726169745f74797065223a202255676c696e657373222c202276616c60008201527f7565223a20000000000000000000000000000000000000000000000000000000602082015250565b614a9a81614158565b8114614aa557600080fd5b50565b614ab18161416a565b8114614abc57600080fd5b50565b614ac881614176565b8114614ad357600080fd5b50565b614adf816141c2565b8114614aea57600080fd5b5056fe4142434445464748494a4b4c4d4e4f505152535455565758595a6162636465666768696a6b6c6d6e6f707172737475767778797a303132333435363738392b2f426f73732061747461636b656420706c617965722e204e657720706c617965722068703a2025730a4d696e746564204e465420772f20746f6b656e496420257320616e6420636861726163746572496e6465782025730a506c6179657220772f206368617261637465722025732061626f757420746f2061747461636b2e2048617320257320485020616e64202573204144a26469706673582212201aff79d2e02a89c901f722d82a3f22fc24095e376c7a411201d0371c3b144cac64736f6c63430008040033446f6e6520696e697469616c697a696e6720626f737320257320772f2048502025732c20696d67202573",
  "linkReferences": {},
  "deployedLinkReferences": {}
}